:060000000A128A11FC2F18
:100F58008316031386010A128A11C5270A128A11F9
:100F68000B30F5002630F4005D30F300F30BBA2F98
:100F7800F40BBA2FF50BBA2FC12FAF2F0A128A1113
:100F88000028831203130611861006140B30F20092
:100F98002630F1005D30F000F00BD02FF10BD02F90
:100FA800F20BD02FD72F83120313061186140610C5
:100FB8000B30F2002630F1005D30F000F00BE22F2C
:100FC800F10BE22FF20BE22FE92F831203138610A5
:100FD800061006150B30F2002630F1005D30F000E7
:100FE800F00BF42FF10BF42FF20BF42FFB2F08006A
:080FF80083010A128A11AC2FDB
:02400E00FF3F72
:00000001FF
